:100000000C9434000C9451000C9451000C94510049
:100010000C9451000C9451000C9451000C9451001C
:100020000C9451000C9451000C9451000C9451000C
:100030000C9451000C9451000C9451000C945100FC
:100040000C9451000C9451000C9451000C945100EC
:100050000C9451000C9451000C9451000C945100DC
:100060000C9451000C94510011241FBECFEFD8E026
:10007000DEBFCDBF11E0A0E0B1E0ECE1F4E002C0F2
:1000800005900D92AE30B107D9F721E0AEE0B1E0B6
:1000900001C01D92A631B207E1F70E94F5010C9450
:1000A0000C020C940000E0E1F1E0108287E2818311
:1000B0001282138291E094831582EEE0F1E0808356
:1000C00084E081831092B90088E48093B80085E8C9
:1000D0008093BC00089584EA8093BC00ECEBF0E0D0
:1000E00080818823ECF78091B900887F883041F0C7
:1000F0009091B900987F81E0903119F080E00895E7
:1001000081E008958093110108958093130108956B
:10011000E0E1F1E015828181880F8093BB0084E8E3
:100120008093BC00ECEBF0E080818823ECF79091A9
:10013000B900987F81E0983109F080E008958093BC
:10014000BB0084E88093BC00ECEBF0E08081882366
:10015000ECF79091B900987F81E0983209F080E047
:100160000895CF93DF930E946B008093150188233D
:1001700091F00E94880080931501882361F0C0E10E
:10018000D1E08B810E949F008D83882321F084E938
:100190008093BC0081E0DF91CF9108950F931F936E
:1001A000CF93C82F00E111E08460F80183830E949F
:1001B000B100F5E0FA95F1F70000CB7FF801C383B9
:1001C0000E94B100CF911F910F910895EF92FF927D
:1001D0000F931F93CF93DF93082F007F90E1899FA8
:1001E000E001112480910F01882311F018E001C073
:1001F00010E00F2EF0E1EF2EF1E0FF2EF02D802F1A
:100200008460812BF70183830E94B100012BF701E9
:1002100003830E94B1008C2F8460812BF7018383BC
:100220000E94B100CB7FC12BF701C3830E94B100B4
:10023000DF91CF911F910F91FF90EF9008952FEFD5
:1002400080E792E0215080409040E1F700C000003C
:1002500080E00E94CE0080E30E94CE008FE19EE409
:100260000197F1F700C0000080E30E94CE008FE10B
:100270009EE40197F1F700C0000080E30E94CE00E9
:1002800087E592E00197F1F700C0000080E20E944C
:10029000CE008CE20E94E6008FE00E94E60081E042
:1002A0000E94E6008FE19EE40197F1F700C0000094
:1002B00080E80E94E600089588E00E94E600089524
:1002C00010920F0188E00E94E600089581E00E94EC
:1002D000E6008FE39CE90197F1F700C00000089564
:1002E000882361F0603108F06FE0823010F080EC1C
:1002F00001C080E8862B0E94E6000895603108F076
:100300006FE080E8F7CF8FE00E94E60008958CE070
:100310000E94E6000E948301089581E080930F010E
:100320008CE00E94E6000E94830108958CE00E9408
:10033000E6000895FF920F931F93CF93DF93982FBA
:10034000907F20E1829FE001112480910F0188239A
:1003500021F06894FF24F3F801C0F12CDF2DD92B94
:1003600000E111E08D2F8560F80183830E94B100C8
:10037000D160F801D3830E94B100CF298C2F856012
:10038000F80183830E94B100C160F801C3830E9419
:10039000B100DF91CF911F910F91FF9008950F93BE
:1003A0001F93CF93DF93262F30E02150310912168F
:1003B000130694F48C01EC01020F131F89918A300B
:1003C00021F480EC0E94E60004C0882329F00E94FA
:1003D0009A01C017D10791F7DF91CF911F910F912B
:1003E000089584E98093BC0008950E9453000E9400
:1003F0001F016EE080E091E00E94CF010E945C014D
:100400002FEF87EA91E6215080409040E1F700C04D
:0C04100000000E948701FFCFF894FFCF8E
:0E041C0057616974696E672E2E2E0A3E00002D
:00000001FF
