:100000000C9434000C9446000C9446000C9446006A
:100010000C9446000C9446000C9446000C94460048
:100020000C9446000C9446000C9446000C94460038
:100030000C9446000C9446000C9446000C94460028
:100040000C9446000C9446000C9446000C94460018
:100050000C9446000C9446000C9446000C94460008
:100060000C9446000C94460011241FBECFEFD8E03C
:10007000DEBFCDBF21E0A0E0B1E001C01D92AB30FA
:10008000B207E1F70E9421010C9459010C94000081
:10009000E5E0F1E0108287E281831282138291E031
:1000A0009483158280930001E1E0F1E08081876014
:1000B000877F8F7E80831092B90088E48093B80098
:1000C00085E88093BC00089584EA8093BC00ECEB43
:1000D000F0E080818823ECF78091B900887F883038
:1000E00041F09091B900987F81E0903119F080E063
:1000F000089581E008958093060108958093080192
:100100000895E5E0F1E015828181880F8093BB00BE
:1001100084E88093BC00ECEBF0E080818823ECF76E
:100120009091B900987F81E0983109F080E00895BE
:100130008093BB0084E88093BC00ECEBF0E080810E
:100140008823ECF78091B90080E00895CF93DF9386
:100150000E94640080930A01882391F00E9481002C
:1001600080930A01882361F0C5E0D1E08B810E9471
:1001700098008D83882321F084E98093BC0081E07E
:10018000DF91CF9108950F931F93CF93C82F05E070
:1001900011E08460F80183830E94A600F5E0FA95DF
:1001A000F1F70000CB7FF801C3830E94A600CF9136
:1001B0001F910F9108950F931F93CF93DF9300D05A
:1001C0001F92CDB7DEB7282F207F298320E1829FA1
:1001D000F0011124FB83EA8305E011E089818C6042
:1001E000F80183830E94A60089818860F8018383D7
:1001F0000E94A6008A818C60F80183830E94A60079
:10020000FA81F37F2F2F2860F80123830E94A60034
:100210000F900F900F90DF91CF911F910F91089544
:1002200084E98093BC000895E2E0F1E0108211823D
:1002300012828FEF8AB91BB808959FEF9AB98BB9D4
:1002400008950E9414010E9448002FEF80E792E079
:10025000215080409040E1F700C0000080E00E9403
:10026000C30080E30E94C3008FE19EE40197F1F791
:1002700000C0000080E30E94C3008FE19EE401976C
:10028000F1F700C0000080E30E94C30087E592E020
:100290000197F1F700C0000080E20E94C3008CE2E9
:1002A0000E94DB008FE00E94DB0080E80E94DB0000
:0602B000FFCFF894FFCF20
:00000001FF
