:100000000C9434000C9451000C9451000C94510049
:100010000C9451000C9451000C9451000C9451001C
:100020000C9451000C9451000C9451000C9451000C
:100030000C9451000C9451000C9451000C945100FC
:100040000C9451000C9451000C9451000C945100EC
:100050000C9451000C9451000C9451000C945100DC
:100060000C9451000C94510011241FBECFEFD8E026
:10007000DEBFCDBF11E0A0E0B1E0E8E1F6E002C0F4
:1000800005900D92AA37B107D9F721E0AAE7B1E0B0
:1000900001C01D92A338B207E1F70E9491020C94AF
:1000A0000A030C940000EDE7F1E0108287E28183FF
:1000B0001282138291E094831582EAE7F1E0808353
:1000C00084E08183ECE7F1E0808183608B7F877F30
:1000D00080831092B90088E48093B80085E880930B
:1000E000BC00089584EA8093BC00ECEBF0E08081D2
:1000F0008823ECF78091B900887F883041F0909197
:10010000B900987F81E0903119F080E0089581E096
:10011000089580937E010895809380010895EDE70E
:10012000F1E015828181880F8093BB0084E8809381
:10013000BC00ECEBF0E080818823ECF79091B900F3
:10014000987F81E0983109F080E008958093BB00AA
:1001500084E88093BC00ECEBF0E080818823ECF72E
:100160008091B90080E00895CF93DF930E947200E0
:1001700080938201882391F00E948F0080938201F6
:10018000882361F0CDE7D1E08B810E94A6008D83AA
:10019000882321F084E98093BC0081E0DF91CF9136
:1001A00008950F931F93CF93C82F0DE711E084603C
:1001B000F80183830E94B400F5E0FA95F1F700009E
:1001C000CB7FF801C3830E94B400CF911F910F91A0
:1001D0000895EF92FF920F931F93CF93DF93082F11
:1001E000007F90E1899FE001112480917B018823A9
:1001F00011F018E001C010E00F2EFDE7EF2EF1E046
:10020000FF2EF02D802F8460812BF70183830E94C5
:10021000B400012BF70103830E94B4008C2F84608B
:10022000812BF70183830E94B400CB7FC12BF701A0
:10023000C3830E94B400DF91CF911F910F91FF9073
:10024000EF9008958CE00E94E900089588E00E94F4
:10025000E900089581E080937B018CE00E94E90031
:10026000089510927B0188E00E94E900089581E0E2
:100270000E94E9008FE39CE90197F1F700C00000BC
:100280000895882361F0603108F06FE0823010F04B
:1002900080EC01C080E8862B0E94E900089560315F
:1002A00008F06FE080E8F7CF8FE00E94E900089542
:1002B0008CE00E94E9000895FF920F931F93CF9363
:1002C000DF93982F907F20E1829FE001112480919D
:1002D0007B01882321F06894FF24F3F801C0F12CFE
:1002E000DF2DD92B0DE711E08D2F8560F801838379
:1002F0000E94B400D160F801D3830E94B400CF29DA
:100300008C2F8560F80183830E94B400C160F801DE
:10031000C3830E94B400DF91CF911F910F91FF9092
:100320000895CF93C1E48C2F0E945C012FEF89EFD9
:1003300090E0215080409040E1F700C00000CF5F86
:10034000C13589F760E082E00E9441018C2F0E9454
:100350005C012FEF89EF90E0215080409040E1F761
:1003600000C00000CF5FC13689F760E082E00E94E4
:100370004101CF9108950F931F93CF93DF93262FC1
:1003800030E0215031091216130694F48C01EC016F
:10039000020F131F89918A3021F480EC0E94E9003A
:1003A00004C0882329F00E945C01C017D10791F78F
:1003B000DF91CF911F910F910895DF92EF92FF92FD
:1003C0000F931F93CF93DF93CDB7DEB728970FB668
:1003D000F894DEBF0FBECDBFE82E0DE711E0F801A7
:1003E000D180138281830E9472000E948F00F82EB8
:1003F000F801D18240E1BE016F5F7F4F8E2D90E00A
:100400000E94D502FF20D9F00E9437016FE085E3FA
:1004100091E00E94BB0163E084E491E00E94BB0193
:1004200068E0CE0101960E94BB01FFEF27EA81E65A
:10043000F15020408040E1F700C000001AC00E9447
:10044000370161E187E491E00E94BB0163E084E44D
:1004500091E00E94BB0168E0CE0101960E94BB01C1
:100460009FE7E9EAF3E09150E040F040E1F700C097
:1004700000008F2D28960FB6F894DEBF0FBECDBFBB
:10048000DF91CF911F910F91FF90EF90DF90089532
:100490000F931F93CF93DF93CDB7DEB728970FB697
:1004A000F894DEBF0FBECDBF0E9437016DE088E536
:1004B00091E00E94BB012FEF8DE399E42150804031
:1004C0009040E1F700C0000011E000E0812F0E94A1
:1004D000DD0181110F5F1F5F1F37C1F70E943701D8
:1004E0004AE0BE016F5F7F4F802F90E00E94D502EF
:1004F00068E0CE0101960E94BB0165E185E691E0CE
:100500000E94BB0128960FB6F894DEBF0FBECDBF88
:10051000DF91CF911F910F91089584E98093BC00E2
:1005200008950E9453002FEF80E792E02150804011
:100530009040E1F700C0000080E00E94D10080E31D
:100540000E94D1008FE19EE40197F1F700C0000006
:1005500080E30E94D1008FE19EE40197F1F700C093
:10056000000080E30E94D10087E592E00197F1F757
:1005700000C0000080E20E94D1008CE20E94E900ED
:100580008FE00E94E90081E00E94E9008FE19EE493
:100590000197F1F700C0000080E80E94E9006EE0DA
:1005A00087E291E00E94BB01FFCFBB274A3031F4C4
:1005B000992322F4BDE2909581959F4F0C94E1021E
:1005C000BB27FB015527AA27880F991FAA1FA4172D
:1005D00010F0A41B83955051B9F7A05DAA3308F021
:1005E000A95DA193009779F7B111B1931192CB0155
:1005F0000C94FA02DC01FC01672F71917723E1F77B
:10060000329704C07C916D9370836291AE17BF07DF
:08061000C8F30895F894FFCF30
:100618003E536E6966666572206661696C65642121
:10062800003E537461727420636F6E646974696FFD
:100638006E2041434B21003E4C697374656E696EB0
:10064800672E2E2E0044657669636520666F756E89
:1006580064210A003078004E6F206465766963650E
:1006680020666F756E640A003E536E696666696E31
:10067800672E2E2E0020416464726573732865739B
:0A068800290A666F756E64210000F8
:00000001FF
