:100000000C9434000C9451000C9451000C94510049
:100010000C9451000C9451000C9451000C9451001C
:100020000C9451000C9451000C9451000C9451000C
:100030000C9451000C9451000C9451000C945100FC
:100040000C9451000C9451000C9451000C945100EC
:100050000C9451000C9451000C9451000C945100DC
:100060000C9451000C94510011241FBECFEFD8E026
:10007000DEBFCDBF11E0A0E0B1E0E8E0F4E002C0F7
:1000800005900D92A031B107D9F721E0A0E1B1E0D0
:1000900001C01D92A931B207E1F70E94F8010C944A
:1000A00002020C940000E3E1F1E0108287E2818318
:1000B0001282138291E094831582E0E1F1E0808363
:1000C00084E08183E2E1F1E0808183608B7F877F40
:1000D00080831092B90088E48093B80085E880930B
:1000E000BC00089584EA8093BC00ECEBF0E08081D2
:1000F0008823ECF78091B900887F883041F0909197
:10010000B900987F81E0903119F080E0089581E096
:100110000895809314010895809316010895E3E1F2
:10012000F1E015828181880F8093BB0084E8809381
:10013000BC00ECEBF0E080818823ECF79091B900F3
:10014000987F81E0983109F080E008958093BB00AA
:1001500084E88093BC00ECEBF0E080818823ECF72E
:100160009091B900987F81E0983209F080E008957D
:10017000CF93DF930E94720080931801882391F03F
:100180000E948F0080931801882361F0C3E1D1E0C1
:100190008B810E94A6008D83882321F084E98093BF
:1001A000BC0081E0DF91CF9108950F931F93CF930F
:1001B000C82F03E111E08460F80183830E94B80036
:1001C000F5E0FA95F1F70000CB7FF801C3830E94B8
:1001D000B800CF911F910F910895EF92FF920F9366
:1001E0001F93CF93DF93082F007F90E1899FE00159
:1001F000112480911101882311F018E001C010E052
:100200000F2EF3E1EF2EF1E0FF2EF02D802F846012
:10021000812BF70183830E94B800012BF701038330
:100220000E94B8008C2F8460812BF70183830E9489
:10023000B800CB7FC12BF701C3830E94B800DF91C8
:10024000CF911F910F91FF90EF9008952FEF80E7CE
:1002500092E0215080409040E1F700C0000080E033
:100260000E94D50080E30E94D5008FE19EE40197B3
:10027000F1F700C0000080E30E94D5008FE19EE40A
:100280000197F1F700C0000080E30E94D50087E5E8
:1002900092E00197F1F700C0000080E20E94D500D3
:1002A0008CE20E94ED008FE00E94ED0081E00E9450
:1002B000ED008FE19EE40197F1F700C0000080E8B7
:1002C0000E94ED0008958CE00E94ED00089588E002
:1002D0000E94ED00089581E0809311018CE00E945E
:1002E000ED0008951092110188E00E94ED0008953C
:1002F00081E00E94ED008FE39CE90197F1F700C0D7
:1003000000000895882361F0603108F06FE08230CA
:1003100010F080EC01C080E8862B0E94ED0008956B
:10032000603108F06FE080E8F7CF8FE00E94ED00C9
:1003300008958CE00E94ED000895FF920F931F93A3
:10034000CF93DF93982F907F20E1829FE0011124CB
:1003500080911101882321F06894FF24F3F801C0F3
:10036000F12CDF2DD92B03E111E08D2F8560F801F1
:1003700083830E94B800D160F801D3830E94B80043
:10038000CF298C2F8560F80183830E94B800C1605B
:10039000F801C3830E94B800DF91CF911F910F91A4
:1003A000FF9008950F931F93CF93DF93262F30E094
:1003B000215031091216130694F48C01EC01020F3E
:1003C000131F89918A3021F480EC0E94ED0004C053
:1003D000882329F00E949D01C017D10791F7DF9172
:1003E000CF911F910F91089584E98093BC000895E7
:1003F0000E9453000E94260162E280E091E00E9488
:08040000D201FFCFF894FFCFF9
:100408005B2B5D20493243204D61737465720A008D
:00000001FF
