:100000000C9434000C9446000C9446000C9446006A
:100010000C9446000C9446000C9446000C94460048
:100020000C9446000C9446000C9446000C94460038
:100030000C9446000C9446000C9446000C94460028
:100040000C9446000C9446000C9446000C94460018
:100050000C9446000C9446000C9446000C94460008
:100060000C9446000C94460011241FBECFEFD8E03C
:10007000DEBFCDBF21E0A0E0B1E001C01D92A23102
:10008000B207E1F70E9469020C9479020C94000017
:10009000FF920F931F93CF93DF936623A1F0EC01A0
:1000A0008C01060F111D80E2F82E8881811102C09B
:1000B000F88280E2E0910201F09103010995219616
:1000C000C017D10791F781E0DF91CF911F910F9178
:1000D000FF900895CF93C82F84600E94EA0185E0C5
:1000E0008A95F1F700008C2F8B7F0E94EA010E9415
:1000F000650281E0CF910895CF93C82F85600E945B
:10010000EA0185E08A95F1F700008C2F8B7F8160F2
:100110000E94EA010E94650281E0CF9108951F9339
:10012000CF93DF93C82F809101018823C9F118E094
:100130000E94D401882369F10E942702882349F193
:10014000DC2FD07F8D2F8460812B0E9454020E946F
:10015000D4018823F1F08D2F812B0E9454020E943C
:10016000D4018823B1F080E1C89FE00111248C2FD5
:100170008460812B0E9454020E94D401882349F09C
:100180008C2F8B7F812B0E9454020E94650281E09C
:1001900003C00E94650280E0DF91CF911F91089516
:1001A00010E0C6CF1F93CF93DF93C82F809101013A
:1001B000882351F0D8E00E94D40181110AC080E068
:1001C000DF91CF911F910895D0E00E94D401882340
:1001D000B1F30E942702882391F31C2F107F1D2B5F
:1001E000812F85600E9454020E9465020E94D40102
:1001F000882329F30E942702882309F3812F816035
:100200000E9454020E9465020E94D4018823B9F220
:100210000E942702882399F220E1C29FC001112485
:10022000CD2FC82B8C2F85600E9454020E9465023E
:100230000E94D401882319F20E942702882309F41E
:10024000BECF8C2F8B7F81600E9454020E9465027A
:1002500081E0B6CF0F931F93CF93DF93C2E0D1E03D
:1002600022ED30E0398328832FE830E03B832A8376
:1002700028E430E03D832C8308E011E02CE730E0F7
:10028000D80111963C932E932AE630E013963C93C6
:100290002E931297E0E0F1E0808381E08183BFEF4D
:1002A000E0E7F2E0B150E040F040E1F700C00000CC
:1002B000D8011296ED91FC91139780E00995D80131
:1002C0001296ED91FC91139780E30995EFE1FEE41E
:1002D0003197F1F700C00000D8011296ED91FC9122
:1002E000139780E30995EFE1FEE43197F1F700C041
:1002F0000000D8011296ED91FC91139780E30995C7
:10030000E7E5F2E03197F1F700C00000D80112965E
:10031000ED91FC91139780E20995EA81FB818CE2D3
:100320000995EA81FB818FE00995EA81FB8181E0F3
:100330000995EFE1FEE43197F1F700C00000EA8192
:10034000FB8180E8DF91CF911F910F910994E0919B
:100350000401F09105018BE00994E0910401F09112
:10036000050188E0099408950895E0910401F09151
:10037000050181E009958FE19EE40197F1F700C046
:1003800000000895089508950895EEE0F1E0808357
:100390001182128213821092B90088E48093B8000F
:1003A00085EC8093BC00089584EA8093BC00809122
:1003B000BC0087FFFCCF8091B900887F883041F076
:1003C0009091B900987F81E0903119F080E0089514
:1003D00081E0089594EA9093BC009091BC0097FF4F
:1003E000FCCF9091B900987F983049F09091B90076
:1003F000987F903121F01092110180E008951092C1
:10040000110190910E01990F9093BB0094E8909385
:10041000BC009091BC0097FFFCCF9091B900987FF1
:10042000983149F791E0909311018093BB0084E8E3
:100430008093BC008091BC0087FFFCCF8091B90005
:10044000887F8832C1F681E080931101089510926F
:10045000110180910E01880F8093BB0084E8809386
:10046000BC008091BC0087FFFCCF9091B900987FC1
:1004700081E0983109F080E0089510921101809197
:100480000E01880F81608093BB0084E88093BC00DC
:100490008091BC0087FFFCCF9091B900987F81E0EC
:1004A000903409F080E008958093BB0084E8809345
:1004B000BC008091BC0087FFFCCF9091B900987F71
:1004C00081E0983209F080E0089584E98093BC00CF
:1004D000089587E20E94C50187E20E942A010E94D6
:1004E000B50184E18AB98BB985E08A95F1F70000FE
:0604F000FBCFF894FFCFE2
:00000001FF
