:100000000C9434000C9446000C9446000C9446006A
:100010000C9446000C9446000C9446000C94460048
:100020000C9446000C9446000C9446000C94460038
:100030000C9446000C9446000C9446000C94460028
:100040000C9446000C9446000C9446000C94460018
:100050000C9446000C9446000C9446000C94460008
:100060000C9446000C94460011241FBECFEFD8E03C
:10007000DEBFCDBF21E0A0E0B1E001C01D92A23102
:10008000B207E1F70E947A020C9492020C940000ED
:10009000FF920F931F93CF93DF936623A1F0EC01A0
:1000A0008C01060F111D80E2F82E8881811102C09B
:1000B000F88280E2E0910201F09103010995219616
:1000C000C017D10791F781E0DF91CF911F910F9178
:1000D000FF900895CF93C82F84600E94FB0185E0B4
:1000E0008A95F1F700008C2F8B7F0E94FB010E9404
:1000F000760281E0CF910895CF93C82F85600E944A
:10010000FB0185E08A95F1F700008C2F8B7F8160E1
:100110000E94FB010E94760281E0CF9108951F9317
:10012000CF93DF93C82F90910101992309F444C024
:1001300018E00E94E5018823C1F10E94380288235B
:10014000A1F1DC2FD07FD12B8D2F84600E9465021E
:100150000E94E501882349F10E943802882329F191
:100160008D2F0E9465020E94E5018823F1F00E9414
:1001700038028823D1F020E1C29FC0011124C12F91
:10018000C82B8C2F84600E9465020E94E5018823A1
:1001900061F00E943802882341F08C2F8B7F0E94EF
:1001A00065020E94760281E003C00E94760280E030
:1001B000DF91CF911F91089510E0BBCF1F93CF9394
:1001C000DF93C82F80910101882351F0D8E00E946D
:1001D000E50181110AC080E0DF91CF911F91089560
:1001E000D0E00E94E5018823B1F30E943802882301
:1001F00091F31C2F107F1D2B812F85600E946502BB
:100200000E9476020E94E501882329F30E943802A9
:10021000882309F3812F81600E9465020E94760283
:100220000E94E5018823B9F20E943802882399F2DE
:1002300020E1C29FC0011124CD2FC82B8C2F8560D7
:100240000E9465020E9476020E94E501882319F24D
:100250000E943802882309F4BECF8C2F8B7F8160E7
:100260000E9465020E94760281E0B6CF0F931F9331
:10027000CF93DF93C2E0D1E02EED30E039832883C5
:100280002FE830E03B832A8328E430E03D832C8351
:1002900008E011E02CE730E0D80111963C932E9352
:1002A0002AE630E013963C932E931297E0E0F1E0BB
:1002B000808381E08183BFEFE0E7F2E0B150E0406E
:1002C000F040E1F700C00000D8011296ED91FC91DA
:1002D000139780E00995D8011296ED91FC91139740
:1002E00080E30995EFE1FEE43197F1F700C00000EB
:1002F000D8011296ED91FC91139780E30995EFE1F7
:10030000FEE43197F1F700C00000D8011296ED919C
:10031000FC91139780E30995E7E5F2E03197F1F757
:1003200000C00000D8011296ED91FC91139780E275
:100330000995EA81FB818CE20995EA81FB818FE0D6
:100340000995EA81FB8181E00995EFE1FEE43197AF
:10035000F1F700C00000EA81FB8180E8DF91CF91D6
:100360001F910F910994E0910401F09105018BE038
:100370000994E0910401F091050188E00994089541
:100380000895E0910401F091050181E009958FE164
:100390009EE40197F1F700C00000089508950895C4
:1003A000E0910401F091050180EC0994EEE0F1E0A8
:1003B00080831182128213821092B90088E48093A4
:1003C000B80085EC8093BC00089584EA8093BC005B
:1003D0008091BC0087FFFCCF8091B900887F883076
:1003E00041F09091B900987F81E0903119F080E060
:1003F000089581E0089594EA9093BC009091BC0028
:1004000097FFFCCF9091B900987F983049F0909178
:10041000B900987F903121F01092110180E0089589
:100420001092110190910E01990F9093BB0094E8E6
:100430009093BC009091BC0097FFFCCF9091B900C5
:10044000987F983149F791E0909311018093BB0018
:1004500084E88093BC008091BC0087FFFCCF809132
:10046000B900887F8832C1F681E080931101089538
:100470001092110180910E01880F8093BB0084E8D7
:100480008093BC008091BC0087FFFCCF9091B900A5
:10049000987F81E0983109F080E008951092110171
:1004A00080910E01880F81608093BB0084E8809367
:1004B000BC008091BC0087FFFCCF9091B900987F71
:1004C00081E0903409F080E008958093BB0084E8D7
:1004D0008093BC008091BC0087FFFCCF9091B90055
:1004E000987F81E0983209F080E0089584E9809354
:1004F000BC00089587E20E94D60187E20E9436017F
:1005000061E082E00E94D001E0910201F0910301DC
:1005100081E4099584E18AB98BB985E08A95F1F780
:080520000000FBCFF894FFCFAF
:00000001FF
