:100000000C9434000C943E000C943E000C943E0082
:100010000C943E000C943E000C943E000C943E0068
:100020000C943E000C943E000C943E000C943E0058
:100030000C943E000C943E000C943E000C943E0048
:100040000C943E000C943E000C943E000C943E0038
:100050000C943E000C943E000C943E000C943E0028
:100060000C943E000C943E0011241FBECFEFD8E04C
:10007000DEBFCDBF0E94E5000C9407020C94000087
:10008000FC01DB01108287E281831282138291E0FE
:10009000948315828C9311968C9111978760877F3A
:1000A0008F7E11968C931092B90088E48093B800EB
:1000B00085E88093BC00089584EA8093BC00ECEB53
:1000C000F0E080818823ECF78091B900887F883048
:1000D00041F09091B900987F81E0903119F080E073
:1000E000089581E00895FC0161830895FC01638314
:1000F0000895FC0115828181880F8093BB0084E8FC
:100100008093BC00ECEBF0E080818823ECF79091C9
:10011000B900987F81E0983109F080E008958093DC
:10012000BB0084E88093BC00ECEBF0E08081882386
:10013000ECF78091B90080E00895CF93DF93EC0154
:100140000E945C008D83882381F0CE010E9479009B
:100150008D83882351F08B810E948F008D838823AB
:1001600021F084E98093BC0081E0DF91CF91089574
:1001700084E98093BC000895FC01108211821282F0
:100180008FEF8AB91BB808954AB121E030E0B90178
:1001900002C0660F771F8A95E2F7CB01462B4AB95A
:1001A0009BB1892B8BB908959BB121E030E002C04F
:1001B000220F331F8A95E2F7209529232BB9089542
:1001C0009FEF9AB98BB908950895CF93DF93CDB778
:1001D000DEB72B970FB6F894DEBF0FBECDBFCE01B2
:1001E00009960E94BC00BE01695F7F4FCE01019657
:1001F0000E9440002FEF80E792E021508040904025
:10020000E1F700C0000060E0CE0101960E94760098
:10021000CE0101960E949D0060E3CE0101960E94EE
:100220007600CE0101960E949D0064E3CE01019606
:100230000E947600CE0101960E949D0025E02A953D
:10024000F1F7000060E3CE0101960E947600CE0136
:1002500001960E949D008FE19EE40197F1F700C096
:10026000000060E3CE0101960E947600CE01019667
:100270000E949D0064E3CE0101960E947600CE01AB
:1002800001960E949D0095E09A95F1F7000060E3C9
:10029000CE0101960E947600CE0101960E949D003B
:1002A0008FE19EE40197F1F700C0000060E3CE010A
:1002B00001960E947600CE0101960E949D0064E3A3
:1002C000CE0101960E947600CE0101960E949D000B
:1002D00095E09A95F1F7000060E3CE0101960E9447
:1002E0007600CE0101960E949D0087E592E001977D
:1002F000F1F700C0000060E2CE0101960E94760096
:10030000CE0101960E949D0064E2CE0101960E94FA
:100310007600CE0101960E949D0095E09A95F1F736
:10032000000060E2CE0101960E947600CE010196A7
:100330000E949D006CE2CE0101960E947600CE01E3
:1003400001960E949D0068E2CE0101960E9476000F
:10035000CE0101960E949D006CECCE0101960E9498
:100360007600CE0101960E949D0068ECCE010196B8
:100370000E947600CE0101960E949D006CE0CE01A5
:1003800001960E947600CE0101960E949D0068E0D1
:10039000CE0101960E947600CE0101960E949D003A
:1003A0006CEFCE0101960E947600CE0101960E946C
:1003B0009D0068EFCE0101960E947600CE01019665
:1003C0000E949D006CE8CE0101960E947600CE014D
:1003D00001960E949D0068E8CE0101960E94760079
:1003E000CE0101960E949D006CE0CE0101960E9414
:1003F0007600CE0101960E949D0068E0CE01019634
:100400000E947600CE0101960E949D00FFCFF894D5
:02041000FFCF1C
:00000001FF
